:020000040800F2
:10000000506E0020450100083D2900089322000899
:1000100099280008851200089D440008000000008F
:100020000000000000000000000000008B3000080D
:10003000D118000800000000F92D00081B3300084B
:100040005F0100085F0100085F0100085F01000810
:100050005F0100085F0100085F0100085F01000800
:100060005F0100085F0100085F0100085F010008F0
:100070005F0100085F0100085F0100085F010008E0
:100080005F0100085F0100085F0100085F010008D0
:100090005F0100085F0100085F0100085F010008C0
:1000A0005F0100085F0100085F0100085F010008B0
:1000B0005F0100085F010008D93600085F010008F1
:1000C0005F0100085F0100085F0100085F01000890
:1000D0005F0100089D3D0008153E0008713E0008C4
:1000E0005F0100085F0100085F0100085F01000870
:1000F0005F0100085F0100085F0100085F01000860
:100100005F0100085F0100085F0100085F0100084F
:100110005F0100085F0100085F0100085F0100083F
:100120005F0100085F0100085F0100085F0100082F
:10013000DFF80CD000F0B4FE004800477958000802
:10014000506E00200648804706480047FEE7FEE75D
:10015000FEE7FEE7FEE7FEE7FEE7FEE7FEE7FEE777
:100160001D33000831010008A0F14101192900D810
:100170002030704740EA01039B0703D009E008C91B
:10018000121F08C0042AFAD203E011F8013B00F85C
:10019000013B521EF9D27047D2B201E000F8012BA8
:1001A000491EFBD270470022F6E710B513460A46F7
:1001B00004461946FFF7F0FF204610BD421E12F814
:1001C000013F002BFBD111F8013B02F8013B002B52
:1001D000F9D1704730B505462A460B4612F8010B97
:1001E00013F8014B08B1A042F8D01CB1002802D08E
:1001F0006D1CF1E7284630BDCAB2401E10F8011F41
:100200008A4202D00029F9D100207047421C10F820
:10021000011B0029FBD1801A704710B5002200E0B5
:10022000521C835C8C5CA34201D1002BF8D1D8B264
:10023000E1B2401A10BD30B505460020034600E08B
:100240005B1C934205D2EC5CC85C201A01D1002CE7
:10025000F6D130BD2DE9FF4F087883B09946FF28CD
:1002600005D0491C2D2804D00024002008E00020DF
:100270000BE00124F9E700EB800003EB4000491C90
:100280000B78FF2BF7D104B140420023029314787E
:1002900019461D462D2C01D02B2C04D1521C2D2C7F
:1002A00013D000240294AA461478FF2C0FD00A25FC
:1002B000A3FB057801FB05814FF0000C03FB0C113B
:1002C000521CE3194AEB0101EEE70124EAE78144FD
:1002D00053EA010002D019F5C87F06DA039800211D
:1002E000C0E9001107B0BDE8F08F0025AE4E2F46E3
:1002F000DFF8B882184600F092FDCDE90001B9F1AF
:10030000000002DAC9F1000400E004460023A74A15
:100310001AEB030B42EB045A12E0E00707D02A461F
:1003200033463846414600F069FA074688462A4671
:1003300033461046194600F061FA05460E46641031
:10034000002CEAD1DDE90001B9F1000F5A4653460D
:1003500006DA00F0F5FC3A46434600F0F1FC05E011
:1003600000F04CFA3A46434600F048FA029A0AB1C5
:1003700081F00041039AC2E90001B3E72DE9FF4F84
:100380001F468DB0D7E901464FF0FF382E20454675
:100390004FF000090B90B9696D1C0E988847396AB7
:1003A000824688470028F6D1BAF1FF3F0AD024F4EC
:1003B000D064002E11DDBAF12B0F08D0BAF12D0F49
:1003C0000BD102E0404611B08DE744F48064B96976
:1003D0006D1C0E9888478246761E6946600501D5D9
:1003E0002D2000E02B208DF8000001F1010B0DF114
:1003F000200809E0B9696D1C0E98884782460F985D
:1004000044F40074761E0560002E02DDBAF1300F50
:10041000F0D00B998A453ED144F0800406E00F9954
:10042000681CA9F1010944F400740860B9696D1CE5
:10043000761E0E98884782463028F0D02BE00B9924
:100440008A4505D1200603D444F08004761E18E0C6
:10045000504604F011FB08B30DF11301761E44F46D
:1004600000748B4508D2AAF130000BF8010B20066E
:1004700007D5A9F1010003E0200602D409F101002B
:100480008146A00502D50F99681C0860B9696D1CEA
:100490000E9888478246002ED1DC53E0002E51DDB5
:1004A000BAF1650F02D0BAF1450F4BD1A00549D57D
:1004B000B9696D1C24F44074761E0E9888478246F4
:1004C000002E0CDD2B2804D0BAF12D0F07D144F4F7
:1004D0008074B9696D1C0E9888478246761EE005C7
:1004E00001D52D2100E02B2108F8011BCDF82C802F
:1004F00021E00DF12901761E44F4007488450CD2E8
:10050000AAF1300010F0FF0088F8000002D10B992A
:10051000884509D908F1010806E0E00501D524481D
:1005200001E042F20F708146B9696D1C0E98884750
:1005300082460F980560002E04DD504604F09CFAB8
:100540000028D6D1F9690E988847FF208BF8000063
:1005500088F800000020069007904B466A4608A9DC
:1005600006A8FFF777FEA00502D46FF001002AE786
:1005700014F0240F0AD0E00714D1DDE90612386820
:10058000031D3B600068C0E900120BE0DDE90601D5
:1005900000F069FC0146E00704D13868021D3A60AA
:1005A0000068016028460EE7000014400000F03F9C
:1005B000F1D8FFFF70B5064604F032F9046805462D
:1005C0000A220021304600F0EFFA2C6070BD80EA6C
:1005D000010210B502F00043400022D04A001FD0B3
:1005E000010E01EB1261C0F35600C2F3560240F453
:1005F000000042F40002A0FB022000047F39140432
:1006000000D0401C50EA124001D44000491EC2B242
:100610000C0604EBD010401C4008802A02D003E0F6
:10062000002010BD20F00100002900DA002018434E
:1006300010BD30B480EA010202F0004530F0004203
:1006400021F0004013D090B1C30DD40DC2F31601B8
:10065000C0F31600E41A41F4000140F400027D34B6
:10066000914201D3641C00E04900002C02DA30BC46
:10067000002070474FF400000023914201D3891AF3
:10068000034340084FEA4101F7D151B1914202D1F1
:100690004FF0004105E002D24FF0010101E06FF0A0
:1006A000010103EBC450284430BC00F0B5BA2DE979
:1006B000FE4F804681EA0300C00F0C46009021F0F7
:1006C000004123F00045B8EB0200A94105D24046A5
:1006D000214690461C460B46024623F0004010433C
:1006E00047D0270DC7F30A00C3F30A510290401AFE
:1006F000019040286BDAC3F3130040F4801B00988C
:10070000924620B10023D2EB030A63EB0B0B019856
:100710005946C0F14002504600F0A7F906460D4682
:1007200050465946019A00F0BFF910EB08006141AC
:10073000002487EA115284EAE7731A4340D0009AF2
:1007400062B3019A012A4FEA075215DC001B61EBE4
:1007500002014FF0004202EA0752CDE90042001CBC
:1007600041F5801132462B4600F09CFA03B0BDE8FB
:10077000F08F40462146F9E7001B61EB0201001CA7
:1007800041F5801300185B412018A2F5001747EBD4
:10079000030140EAD570B6196D4111E06D084FEACA
:1007A000360645EAC0754FEA0752001B61EB0201AD
:1007B000001C41F5801149084FEA300000195141F1
:1007C00032462B4603B0BDE8F04F00F05CBA00980B
:1007D000012240000023D0EB020263EBE07300989B
:1007E00021464FEAE074B8EB000061EB0401E9E751
:1007F00083F000435BE781F0004158E72DE9FE4FAD
:1008000081EA030404F0004421F0004100944FF019
:10081000000B23F0004350EA01045ED052EA0304C7
:100820005BD0C3F30A54C1F30A552C44A4F2F33449
:100830000194A0FB0254C1F3130141F48011C3F3EE
:10084000130343F4801301FB024400FB034E840AAC
:10085000970A44EA815447EA8357A4FB0768029544
:100860008D0A05FB07854FEA932C04FB0C542705E2
:10087000029D4FEA065847EA1637B5EB08056EEBBE
:10088000070C870E920E47EA811742EA8312A7FBF4
:100890000201B6EB0B0164EB00042B0D43EA0C33B1
:1008A0005E1844EB1C50DA465146E7FB0201C5F3E3
:1008B00013044FEA0B3343EA14534FEA0432019C0A
:1008C00043EA0603A4F10C040294009CCDE900B4B1
:1008D00000F0E8F903B0BDE8F08F00200146F9E729
:1008E00096230022114600F0A0B90EB5C10F80EA90
:1008F000E0700844CA07002140F233438DE80E003F
:100900000A460B4600F0CEF903B000BD00F00042ED
:1009100020F00040C10DC0F3160040F400007F2914
:1009200001DA00207047962903DCC1F19601C84026
:1009300001E096398840002AF4D04042704770B5F3
:10094000C1F30A5201F000450024C1F3130140F243
:10095000FF3341F480119A4201DA002070BD40F269
:1009600033439A42A2F2334203DC524200F08CF845
:1009700000E090402C43F1D0404270BD30B5041EE1
:1009800071F1000404DB4FF00044404264EB0101CC
:10099000141E73F1000405DB1C464FF00043524265
:1009A00063EB04038B4208BF824230BD30B5041EA6
:1009B00071F1000404DB4FF00044404264EB01019C
:1009C000141E73F1000405DB1C464FF00043524235
:1009D00063EB0403994208BF904230BD30B50B462B
:1009E000014600202022012409E021FA02F59D425F
:1009F00005D303FA02F5491B04FA02F52844151E33
:100A0000A2F10102F1DC30BD2DE9F05F05460020C6
:100A100092469B4688460646814640241BE028466F
:100A200041464746224600F02FF853465A46C01A20
:100A3000914110D311461846224600F016F82D1A9F
:100A400067EB01084F4622460120002100F00DF817
:100A500017EB00094E41201EA4F10104DFDC4846DB
:100A600031462A464346BDE8F09F202A04DB203A5F
:100A700000FA02F1002070479140C2F1200320FAF1
:100A800003F3194390407047202A04DB203A21FAEF
:100A900002F00021704721FA02F3D040C2F1200297
:100AA0009140084319467047202A06DBCB17203AAD
:100AB00041FA02F043EAE07306E041FA02F3D04063
:100AC000C2F120029140084319467047426842B182
:100AD000016811F8013B23B1521EC0E9001218460B
:100AE00070470121C160881E704742685AB1C368CF
:100AF000016843B983688B4205D0491E521CC0E986
:100B00000012002070474FF0FF3070470FB40023F1
:100B100000B589B00CA900910B996FF00042CB6031
:100B20001E4B06931E4B07930423CDE901321D4A49
:100B3000089202466B460020FFF720FC09B05DF8E2
:100B400014FB70B586B006464FF0FF300091CDE93A
:100B50000101002015460C4604903246694604A85F
:100B6000FFF7D4FF02460498211825B108B10846C2
:100B700000E020462860049800280DD0002A02DDFD
:100B80000098884208D0081B0094CDE90104324641
:100B9000694604A8FFF7BAFF06B070BDCD0A000889
:100BA000EB0A0008CD0E00082DE9F04791460F46EC
:100BB00080460446002614F8015B2DB100F082F94E
:100BC0000068405DC007F6D12B2D02D02D2D18D026
:100BD000641E4A463946204600F081F927B139683B
:100BE000A14201D1C7F8008071054FF002040BD576
:100BF0004042002803DD03F013FE0460A007BDE8B7
:100C0000F08746F48066E4E70028F8DA03F008FE8F
:100C100004606FF00040F2E70029A8BF7047401C55
:100C2000490008BF20F00100704710B4B0FA80FC02
:100C300000FA0CF050EA010404BF10BC704749B13F
:100C4000CCF1200421FA04F411FA0CF118BF0121AF
:100C500021430843A3EB0C01CB1D4FEA00614FEA8F
:100C6000102042BF002010BC704700EBC35010445E
:100C70000029A4BF10BC7047401C490008BF20F0E9
:100C8000010010BC704710B5141E73F1000408DA9F
:100C9000401C41F1000192185B411A4301D120F040
:100CA000010010BD2DE9F04D92469B4611B1B1FAFD
:100CB00081F202E0B0FA80F220329046FFF7D5FED2
:100CC00004460F4640EA0A0041EA0B0153465A46E1
:100CD000084313D0114653EA010019D0C8F140026D
:100CE0005046FFF7D1FE05460E465046594642464D
:100CF000FFF7BBFE084305D0012004E0204639463B
:100D0000BDE8F08D0020054346EAE0762C433743EA
:100D10000A986305E40AA0EB08000022FD0A44EAF1
:100D200047540A3002D500200146E9E701051019B1
:100D30006941DDE9084500196941BDE8F04DA2E7C8
:100D40002DE9F04D81EA030404F0004B21F0004549
:100D500014464FF0000A23F0004150EA050220D06B
:100D600054EA01021DD0C5F30A570246C5F3130326
:100D7000C1F31300C1F30A5640F4801543F4801305
:100D8000A7EB0608101BD64608F2FD3873EB0500EA
:100D900002D308F1010801E092185B41B8F1000F9D
:100DA00003DA00200146BDE8F08D00204FF48011E9
:100DB000064684460EE0171B73EB050705D3121B8E
:100DC00063EB050306434CEA010C49084FEA300087
:100DD00092185B4150EA0107EDD152EA030012D0AC
:100DE00082EA040083EA0501084305D0101BAB41E9
:100DF00006D20122002306E000224FF0004302E069
:100E00006FF0010253101AEB06004CEB085110EB87
:100E10000A0041EB0B01BDE8F04DFFF734BF0EB502
:100E200040F2334202920022CDE900221346FFF73E
:100E300039FF03B000BDC1F30A52C1F3130140F200
:100E4000FF3341F480119A4202DA002001467047D4
:100E500040F233439A42A2F2334202DC5242FFF79D
:100E600013BEFFF702BE01F0004330B421F0004191
:100E700050EA010206D00A0DA2F56072C1F3130117
:100E8000002A02DC30BC00207047440F44EAC10451
:100E9000C100E01830BC00EBC250FFF7BDBE00003F
:100EA000064C074D06E0E06840F0010394E80700B7
:100EB00098471034AC42F6D3FFF73EF9986F00081C
:100EC000B86F000800487047FC6E000810B5044673
:100ED000FFF7F8FF0068005D00F0010010BD2DE98C
:100EE000F05F82460078002715468B460AF1010420
:100EF000B946302801D09DB113E014F8010B012749
:100F0000782803D0582801D045B10AE00DB1102D42
:100F100007D10027102514F8010B02E0082500E096
:100F20000A250026B0460EE005FB080005FB06F189
:100F3000012701EB10461FFA80F8B6F5803F00D379
:100F4000B94614F8010B294600F018F80028EBDA2E
:100F5000BBF1000F05D00FB1641E00E05446CBF882
:100F60000040B9F1000F06D003F05AFC02210160E5
:100F7000C81EBDE8F09F48EA0640FAE73A2800D2CA
:100F8000303820F02002412A01D3A2F137008842F4
:100F900001D34FF0FF30704770B58C1810F8015B2B
:100FA00015F0070301D110F8013B2A1106D110F802
:100FB000012B03E010F8016B01F8016B5B1EF9D106
:100FC0002B0705D40023521E0DD401F8013BFAE78C
:100FD00010F8013BCB1A921C03E013F8015B01F8F7
:100FE000015B521EF9D5A142D8D3002070BD00008C
:100FF00010B59A48C078072814D1994800789749C5
:101000000872974840780871964800784872954869
:1010100040784871012003F05BFB9048C078C01C09
:101020008E49C8708D48C078082814D18E48007841
:101030008A4988728C48407888718C480078C872D8
:101040008A484078C871022003F042FB8348C07888
:10105000C01C8249C8708648007981490978884255
:1010600022D1834840797E49497888421CD1804802
:101070008079012818D17948807BA8B97748C07B4E
:1010800090B17648007B78B97448C07B401E7349A4
:10109000C873012008738874022001F0FFFB03F07D
:1010A0006BFB74A005F09EFD714800796D490978CD
:1010B000884222D16E4840796A49497888421CD1D9
:1010C0006B488079012818D16448807BA8B96348AF
:1010D000007C90B16148407B78B96048007C401E3C
:1010E0005E490874012048730220887401F0D6FB21
:1010F00003F042FB5FA005F075FD5D4800795A4999
:101100000978884223D15A4840795749497888421A
:101110001DD157488079012819D15048807BB0B93A
:101120004E48407C98B14D48807B80B94B48407C0C
:10113000401E4A49487401208873032088740220A5
:1011400001F0ACFB03F018FB4AA005F04BFD4B4847
:101150004078002868D049484078082860D2DFE805
:1011600000F05F04182C414951593C48C07B78B1CC
:101170003A48007B60B93948C07B401E3749C87384
:10118000012008738874022001F088FB03F0F4FA50
:1011900046E03248007C78B13048407B60B92F4847
:1011A000007C401E2D490874012048730220887479
:1011B00001F074FB03F0E0FA32E02848407C80B193
:1011C0002648807B68B92548407C401E23494874E6
:1011D0000120887303208874022001F05FFB03F074
:1011E000CBFA1DE01D48007B012802D100201B49DD
:1011F000087315E01948407B012802D100201749E7
:1012000048730DE01548807B012802D10020134966
:10121000887305E00020114908734873887300BF84
:1012200000BF00201549487014480078A8B1144840
:10123000007890B911480078012802D0022808D11E
:1012400003E0012001F02AFB03E0022001F026FB6D
:1012500000BF00BF00200949087010BD385E0020A3
:101260006C0A00206E0A0020700A0020720A00201A
:10127000500A0020636D643A310000001C5E0020BB
:10128000C90A002000BFFEE710B5012001F078FA7E
:1012900004463CB17448007820B9744804700120B9
:1012A0007149087064B170480078012808DB6E4805
:1012B00000781E2804DC6C480078401C6A490870DD
:1012C000002C7FD16848007800287BDD66480078D4
:1012D0001E2877DA65480078012804D0022824D037
:1012E000032869D143E062A003F064FA63480079FF
:1012F000D0B96348007B012803D1002060490873FE
:1013000012E05F48007B78B95D48C07B60B15C4803
:10131000C07B401E5A49C87301200873887402209C
:1013200001F0BCFA03F028FA47E056A003F042FAB5
:1013300052480079D0B95248407B012803D100209F
:101340004F49487312E04E48407B78B94C48007CC6
:1013500060B14B48007C401E494908740120487325
:101360000220887401F09AFA03F006FA25E048A0FA
:1013700003F020FA41480079D8B94148807B012820
:1013800003D100203E49887313E03D48807B80B93B
:101390003B48407C68B13A48407C401E384948741C
:1013A0000120887303208874022001F077FA03F08B
:1013B000E3F902E006E0FFE700BF00BF00202A4992
:1013C00008704FE0002C4DD1274800781E2849DBDB
:1013D00026480078012804D0022817D003283CD1E1
:1013E00029E02EA003F0E6F901F03AFB234800794A
:1013F000012803D001202149087106E000201F497F
:101400000871294908602949086027E023A003F0F2
:10141000D1F901F025FB19480079022803D00220F8
:101420001649087106E00020144908711E49086039
:101430001E49086012E01EA003F0BCF91048807835
:10144000012803D100200E49887002E001200C49D8
:10145000887001200949087000E000BF00BF00202B
:101460000149087010BD0000C90A0020CA0A002006
:101470004B6579315F53686F72740A001C5E0020FF
:10148000385E00204B6579325F53686F72740A00D2
:101490004B6579335F53686F72740A004B6579311D
:1014A0005F4C6F6E670A00000C00002004000020F3
:1014B0004B6579335F4C6F6E670A00001FB50446B9
:1014C00000200290012C04D0022C19D0032C45D10D
:1014D0002DE003AA01A92248006801F095FE01A9A8
:1014E0002048039AFEF746FE02AA69461E48006895
:1014F00001F08AFE69461D48029AFEF73BFE2DE088
:1015000003AA01A91648006801F07EFE01A9184847
:10151000039AFEF72FFE02AA69461348006801F0FD
:1015200073FE69461348029AFEF724FE16E003AAEA
:1015300001A90B48006801F067FE01A90E48039A53
:10154000FEF718FE02AA69460748006801F05CFE33
:1015500069460A48029AFEF70DFE00BF00BF1FBD94
:10156000640A00206C0A0020680A00206E0A00202D
:10157000700A0020720A0020740A0020760A0020F7
:1015800010B5044600F0DEF82F48007800114FF443
:101590007A7148432C49097801F00F0101EBC1022F
:1015A00002EB011100EB810027494978091101EB99
:1015B000810100EB41002449497801F00F01084402
:1015C00020802148807800F00F001F498978091198
:1015D00001EB810100EB4100A0701B48C07800F0D6
:1015E0000F001949C978091101EB810100EB410095
:1015F000E0701548007900F00F00134909790911CE
:1016000001EB810100EB410020710F48407900F0AF
:101610000F000D494979091101EB810100EB4100EF
:1016200060710948807900F00F0007498979091134
:1016300001EB810100EB4100A0710348C07900F08B
:101640000F00E07110BD0000500A002008B5012114
:10165000082001F0F3FB0820ADF8000003208DF80E
:10166000020010208DF8030069460C4800F031FD9F
:1016700008210A4800F009FE2020ADF800000320F0
:101680008DF8020010208DF803006946034800F031
:1016900020FD2021014800F0F8FD08BD000C0140AC
:1016A00070B504460020254908602549C1F8940119
:1016B00001202249086003F04DFF44F00104002698
:1016C00016E004F0010020B101201C49091D08604A
:1016D00003E000201949091D08600120174908315D
:1016E000086000201649C1F894016410701CC6B24D
:1016F000082EE6DB03F01CFF002613E06D100F48F8
:101700007C38006810B145F0800501E005F07F05E8
:1017100001200A490831086000200949C1F89401F4
:10172000701CC6B2082EE9DB0120044908310860AC
:1017300000200349C1F88C01284670BD8C812142EC
:101740000080214210B58C20FFF7AAFF1149487094
:101750008820FFF7A5FF0F4988708620FFF7A0FFBC
:101760000C49C8708420FFF79BFF0A49087182204A
:10177000FFF796FF074948718020FFF791FF00F0BF
:101780007F00044988718A20FFF78AFF0149C871E8
:1017900010BD0000500A002070B504460E4600201F
:1017A000254908602549C1F89401012022490860B3
:1017B00003F0D0FE04F0FE04002516E004F0010062
:1017C00020B101201C49091D086003E000201A49CE
:1017D000091D0860012018490831086000201749D8
:1017E000C1F894016410681CC5B2082DE6DB002521
:1017F00016E006F0010020B101200F49091D086024
:1018000003E000200C49091D086001200A49083145
:10181000086000200949C1F894017610681CC5B21F
:10182000082DE6DB01200449083108600020034947
:10183000C1F88C0170BD00008C81214200802142E2
:1018400000B587B00020069006AA01A91E480068CE
:1018500001F0DAFC01A91D48069AFEF78BFC002175
:101860008E20FFF799FF80210846FFF795FF174864
:1018700041788C20FFF790FF144881788820FFF78B
:101880008BFF1248C1788620FFF786FF0F48017949
:101890008420FFF781FF0D4841798220FFF77CFF0C
:1018A0000A4881798020FFF777FF0848C1798A20AC
:1018B000FFF772FFA5219020FFF76EFF80218E2099
:1018C000FFF76AFF07B000BD580A00205C0A00203D
:1018D0007047000010B54FF480710348FEF763FCB9
:1018E00000200249088010BD1C550020B40A0020C9
:1018F00070B50546002400BF00F022F878B90DA1AC
:101900000E48FEF767FC04464CB17B212046FEF7EB
:1019100073FC04460CB1204670BD0020FCE7052096
:1019200003F080FD281EA5F101018DB2E4D100BFB6
:10193000F2E700004D545245435600001C5500206C
:101940000A48008808B901207047084800880849FB
:101950000988884203D1002004490880F4E703483D
:101960000088034908800120EEE70000B40A002047
:10197000B60A002010B5C0B004464FF48071684626
:10198000FEF711FC5DA0008820805D4800681428E7
:1019900024DD5B480068962820DA5A480078E8B1D0
:1019A0004FF480716846FEF7FEFB554856A1026869
:1019B000684602F00FFF69462046FEF7FFFB4FF432
:1019C00080716846FEF7EFFB534854A102686846F1
:1019D00002F000FF69462046FEF7F0FB5348007B0B
:1019E00032280FDA4FF480716846FEF7DCFB4F486F
:1019F000437B027B4EA1684602F0ECFE694620461E
:101A0000FEF7DCFB4FF480716846FEF7CCFB4D48D7
:101A1000027B4DA1684602F0DDFE69462046FEF7D6
:101A2000CDFB4FF480716846FEF7BDFB4548427B15
:101A300049A1684602F0CEFE69462046FEF7BEFB8D
:101A40004FF480716846FEF7AEFB3E48827B46A1AC
:101A5000684602F0BFFE69462046FEF7AFFB4FF432
:101A600080716846FEF79FFB3648C27B42A16846FC
:101A700002F0B0FE69462046FEF7A0FB4FF48071ED
:101A80006846FEF790FB2F48027C3FA1684602F0B3
:101A9000A1FE69462046FEF791FB4FF4807168462F
:101AA000FEF781FB2748427C3BA1684602F092FE8C
:101AB00069462046FEF782FB4FF480716846FEF7C8
:101AC00072FB2048827838A1684602F083FE69469E
:101AD0002046FEF773FB4FF480716846FEF763FB08
:101AE00035A1684602F076FE69462046FEF766FBA1
:101AF0002046FEF78BFBC0B240B010BD7B0000005B
:101B00000C00002008000020226865617274223AEF
:101B1000222564222C0000000400002022626C6F49
:101B20006F64223A222564222C0000001C5E0020F3
:101B30002274656D70223A22253032642E253032AF
:101B400064222C00385E00202264727567315F7356
:101B5000223A222564222C002264727567325F7358
:101B6000223A222564222C002264727567335F7347
:101B7000223A222564222C00226472756731223AAF
:101B8000222564222C000000226472756732223AFA
:101B9000222564222C000000226472756733223AE9
:101BA000222564222C0000002277616E696E672274
:101BB0003A222564220000007D00000000B5A1B09B
:101BC000FA2003F02FFCFFF785FE50A002F0F2FD93
:101BD00003E04FF4967003F025FC4FF4FA7252A123
:101BE00052A000F085F90028F3D151A002F0E2FDE7
:101BF000802101A8FEF7D7FA53A101A802F0EAFD5F
:101C000003E04FF4967003F00DFC4FF4FA7246A116
:101C100001A800F06DF90028F3D151A002F0CAFD2F
:101C2000802101A8FEF7BFFA53A05CA35EA261A1C8
:101C3000009001A802F0CEFD674901A802F0CAFD9C
:101C400003E04FF4967003F0EDFB4FF4FA7236A107
:101C500001A800F04DF90028F3D160A002F0AAFD20
:101C6000802101A8FEF79FFA41F272735FA263A17F
:101C700001A802F0AFFD66A101A802F0ABFD03E0F0
:101C80004FF4967003F0CEFB4FF4FA7226A101A830
:101C900000F02EF90028F3D16DA002F08BFD802119
:101CA00001A8FEF780FA6DA101A802F093FD03E000
:101CB0004FF4967003F0B6FB4FF4FA721AA101A824
:101CC00000F016F90028F3D16AA002F073FD80211C
:101CD00001A8FEF768FA6AA271A101A802F07AFDD4
:101CE00074A101A802F076FD03E04FF4967003F0B2
:101CF00099FB4FF4FA720CA101A800F0F9F8002842
:101D0000F3D178A002F056FD21B000BDB2E2CAD4F2
:101D1000CDA8D0C5CAC7B7F1B3C9B9A62E2E2E20FB
:101D20002E2E2E0D0A0000004F4B000041540000E3
:101D3000C9E8D6C3CAFDBEDDC0E0D0CD2E2E202E10
:101D40002E2E0D0A0000000041542B4D54434647EF
:101D50003D22636C6F7564222C302C322C310000D4
:101D6000C9E8D6C3C1B4BDD3B2CECAFD2E2E2E2033
:101D70002E2E2E0D0A0000006634343964363830B9
:101D80003832376537323766666461663563643288
:101D9000383562383331363300000000736D6172BC
:101DA00074646576696365006B3131713552423018
:101DB0003334470041542B4D544346473D22616C18
:101DC0006961757468222C302C222573222C2225FF
:101DD00073222C2225732200446F0008C1ACBDD3AE
:101DE000B7FECEF1C6F70D0A000000003138332EE1
:101DF0003233302E34302E333900000041542B4D15
:101E0000544F50454E3D302C222573222C25640022
:101E100041542B4D544F50454E3D302C22696F7428
:101E20002D30367A303062686C6A313674766A38B2
:101E30002E6D7174742E696F746875622E616C6991
:101E400079756E63732E636F6D222C3138383300D1
:101E5000C1ACBDD3C9E8B1B80D0A000041542B4D47
:101E600054434F4E4E3D302C22616C69617574684D
:101E700022200000B6A8D2E5D6F7CCE20D0A000079
:101E80002F62726F6164636173742F6B31317135CE
:101E90005242303334472F746573743100000000B0
:101EA00041542B4D545355423D302C312C22257337
:101EB000222C300041542B4D545355423D302C318F
:101EC0002C222F62726F6164636173742F6B3131E6
:101ED00071355242303334472F7465737431222C7C
:101EE0003000000047413130204F4B0D0A00000008
:101EF000F0B5C1B004460E461546224611A101A810
:101F000002F068FC01A8FEF781F987B2394601A802
:101F100002F0B6FB0FE0FFF713FD48B931460B485E
:101F2000FEF758F920B1FFF7D5FC002041B0F0BD15
:101F30000A2003F077FA281EA5F101018DB2EAD13B
:101F40000120F3E725730D0A000000001C55002056
:101F5000044900E0521C11F8013B002BFAD1500853
:101F6000704700008409002010B50446062C22D2D8
:101F7000DFE804F003080D12171C0121084600F0E9
:101F80003DFF18E00121022000F038FF13E001219D
:101F9000042000F033FF0EE00121082000F02EFFA6
:101FA00009E00121102000F029FF04E00121202098
:101FB00000F024FF00BF00BF10BD70B504460D4601
:101FC00016462046FFF7D0FF32462946204600F04D
:101FD0005AF8204600F001F870BD3EB50446204690
:101FE00001F0D2FE0546062C33D2DFE804F0030BE5
:101FF000131B232A4FF47A70ADF804004820ADF883
:10200000000026E040F2E730ADF804004720ADF8CC
:1020100000001EE04FF47A70ADF804004820ADF8DF
:10202000000016E040F2E630ADF804004620ADF8BE
:1020300000000EE05920ADF804004F20ADF800007C
:1020400007E040F2E730ADF804004720ADF80000AB
:1020500000BF00BF0020ADF80600ADF802008DF80B
:1020600008006946284601F03DFE0121284601F09E
:10207000A5FB01221146284601F0C7FC0021284695
:1020800001F0A2FB3EBDF8B506460C4615464FF4DE
:10209000A06000F0A1FC26B1012E06D0022E0CD1CA
:1020A00007E01C208DF8000007E01D208DF80000DF
:1020B00003E01E208DF8000000BF00BF8DF8014036
:1020C0008DF8025001208DF80300684600F04CFCAA
:1020D000F8BD2DE9F041024600250026002000232E
:1020E0000024002791F803C00CF00F0591F803C0FD
:1020F0000CF0100CBCF1000F03D091F802C04CEAB8
:10210000050591F800C0BCF1000F31D01468002023
:102110002BE04FF0010C0CFA00F3B1F800C00CEA10
:1021200003069E4220D183004FF00F0C0CFA03F7F8
:10213000BC4305FA03FC4CEA040491F803C0BCF16B
:10214000280F06D14FF0010C0CFA00FCC2F814C0A5
:102150000AE091F803C0BCF1480F05D14FF0010C23
:102160000CFA00FCC2F810C0401C0828D1D314603F
:10217000B1F800C0BCF1FF0F34DD546800202EE040
:1021800000F1080C4FF0010808FA0CF3B1F800C098
:102190000CEA03069E4221D183004FF00F0C0CFA8B
:1021A00003F7BC4305FA03FC4CEA040491F803C0AE
:1021B000BCF1280F05D100F1080C08FA0CF8C2F8A0
:1021C000148091F803C0BCF1480F07D100F1080C4E
:1021D0004FF0010808FA0CF8C2F81080401C0828DB
:1021E000CED35460BDE8F081F0B50A460023002448
:1021F0000021002500F00046B6F1004F02D11D4E2F
:10220000F16901E01B4E7168C0F3034583B200F42D
:102210004016B6F5401F08D121F07061154E766862
:1022200026F07066134F7E6012E000F48016B6F55B
:10223000801F06D1032606FA05F4A14341F0706120
:1022400006E0460D360103FA06F6B14341F070612F
:1022500022B1460D360103FA06F6314300F000467E
:10226000B6F1004F02D1034EF16101E0014E716001
:10227000F0BD0000000001400246002093680B40C2
:102280000BB1012000E000207047416170470161FF
:10229000704700BFFEE700000EB54FF4A06000F0ED
:1022A0009BFBFFF755FE5D49086003F099F801229A
:1022B00000210220FFF781FE4FF4165002F0F0F8E3
:1022C000022201214FF4165002F03AF94FF4165051
:1022D00002F080F901F052F800F0C2FA00F09AFA28
:1022E000FFF7B4F9142001F03DF900F003FC0020E1
:1022F00000F0BBFB002000F0C6FB49A14C4802F0F7
:1023000069FA4B4A0221002000F082FC0120494971
:10231000086003F03BFC48484849086000204849F1
:1023200008604FF4FA704749086000204649086089
:102330004DE000BF454800680128FBD04449072014
:1023400003F0E3FB424800788007800B404949785E
:1023500040EA01203E49897808433E493A4A1268DA
:1023600041F822003A48C0788007800B3849097943
:1023700040EA01203649497908433749324A126810
:1023800041F8220033483049096850F821002B49B0
:102390000968884206D22F482B49096850F8210065
:1023A000264908602B482849096850F8210024492B
:1023B0000968884206D927482349096850F821004E
:1023C0001F49086020480068401C1F4908601E48DB
:1023D00000681C4909688842ABDB1E481A49096835
:1023E00050F821001D4908601D481E491E4A1F4B18
:1023F000CDE900210290174A12480168164803F0FF
:1024000033FC02E0052003F00DF81949194800F0EB
:1024100033FE0128F6D100F023FB0EBD1C0A00207C
:102420002D2D2D204D41583330313032202D2D00AF
:1024300090220020B4012242FFFF0300140000207C
:102440001800002000000020200000201C812142F4
:102450002D000020C01A0020F01200201C000020D7
:10246000100000200C0000200800002004000020C4
:10247000385E0020B80A002008B50121082000F0CD
:10248000DDFC4FF48070ADF8000004208DF80300EF
:1024900069460248FFF71DFE08BD0000000C014020
:1024A00008B50121082000F0C9FC4FF48070ADF898
:1024B000000003208DF8020010208DF8030069460B
:1024C0000148FFF706FE08BD000C0140FEB50020E4
:1024D0009649086096489749086000209649086028
:1024E0006420924908603AE094489049096850F89D
:1024F00021108E4800686438904A42F820109048B5
:102500008A49096850F821108848006864388C4A64
:1025100042F8201089488549096850F8210085490A
:102520000968884206D285488049096850F8210028
:102530008049086081487D49096850F821007E493A
:102540000968884206D97D487849096850F8210011
:102550007949086075480068401C744908607348F0
:102560000068B0F5FA7FBFDB4FF4C8706F490860B0
:10257000B7E06E480068401E704951F8200071496C
:10258000086000BF704800680128FBD06F49072031
:1025900003F0BBFA6D4800788007800B6B494978DF
:1025A00040EA012069498978084364495F4A126812
:1025B00041F822006548C0788007800B634909799B
:1025C00040EA01206149497908435D49574A126848
:1025D00041F8220059485549096850F821005949E5
:1025E0000968884231D95549504A126851F8221079
:1025F000544A1268881AFEF773F9554908604E4923
:1026000009684C4A1268881AFEF76AF9044621469E
:102610004F480068FEF70DF84D4908604D494C4899
:102620000068FDF7D4FF4A49086008460068FEF7D5
:102630006DF949490968081A474908600846006861
:10264000002833DA0020086030E03C49374A12683D
:1026500051F822103B4A1268501AFEF741F93C49E2
:10266000086035490968334A1268881AFEF738F954
:102670000446214636480068FDF7DBFF3449086010
:10268000344933480068FDF7A2FF31490860084625
:102690000068FEF73BF93049096808442E49086094
:1026A00008460068FF2801DDFF2008602B480078FD
:1026B00001280CD12A480068782808DA28480078D0
:1026C00028490870284800782849087004E000204C
:1026D000244908702549087014480068401C1349B3
:1026E000086012480068B0F5FA7FFFF642AF1B4859
:1026F0001B491F4A1C4BCDE9002102900F4A1D487F
:1027000001680F4803F0B0FA1548006868B1144832
:102710000068FEF7EAF80646174A184BFEF76EF80F
:102720000446FEF70CF90E490860FEBD20000020AB
:10273000FFFF03001400002018000020C01A002032
:10274000F01200201C0000201C8121422D000020DE
:102750002800002000007F432400002010000020FB
:102760000C00002033000020040000203400002072
:1027700008000020000000209A9999999999E93F52
:1027800010B5044614B10120204908701F48007894
:1027900030B301211E48FFF76FFD48B102211C48EC
:1027A000FFF76AFD20B110211948FFF765FDB8B9A0
:1027B00000201649087001211548FFF75DFD08B992
:1027C000012010BD02211248FFF756FD08B9022072
:1027D000F7E710210E48FFF74FFDA8B90320F0E7F7
:1027E00001210B48FFF748FD01280DD102210848BF
:1027F000FFF742FD012807D110210548FFF73CFDF6
:10280000012801D1014908700020DAE750000020BA
:102810000008014008B50121042000F00FFB012051
:10282000ADF8000048208DF8030069460B48FFF71B
:1028300050FC0220ADF8000048208DF803006946E6
:102840000648FFF746FC1020ADF8000048208DF840
:10285000030069460148FFF73CFC08BD0008014041
:1028600008B50121142000F0E9FA4FF40050ADF84A
:10287000000010208DF8030003208DF80200694647
:102880000348FFF726FC00200249086008BD00004D
:1028900000100140B401224200BFFEE770B5ADF563
:1028A000007D044600254FF4807140A8FDF77BFCB5
:1028B000012C02D0022C0AD104E040A8FFF75AF8FC
:1028C000054605E040A802F0F9FD054600E000BF1E
:1028D00000BF85B140AB09A210A1684601F07AFFA4
:1028E0006846FDF793FC86B23146684601F0C8FEA3
:1028F000642002F097FD0DF5007D70BD2F62726FB0
:102900006164636173742F6B3131713552423033BE
:1029100034472F74657374320000000041542B4D0E
:10292000545055423D302C302C302C302C22257305
:10293000222C222573220D0A00000000704738B5B2
:1029400005460C464FF4A06000F046F826208DF8AE
:1029500000008DF801508DF8024001208DF8030031
:10296000684600F001F838BD70B5002100230F2241
:10297000C47804B3154C246804F4E064C4F5E0643E
:10298000210AC1F10403CA40447804FA03F18478AF
:102990001440214309010E4C0678A155047804F037
:1029A0001F050124AC4005786D11AD0005F1E0254F
:1029B000C5F8004109E0047804F01F050124AC408B
:1029C000044D0678761145F8264070BD0CED00E008
:1029D00000E400E080E100E002490143024A1160A6
:1029E000704700000000FA050CED00E000B58DB066
:1029F00000F036F811A1684601F0ECFE6A460021AD
:102A0000084600F005F911A1684601F0E3FE6A46A8
:102A10000221002000F0FCF808A1684601F0DAFE6F
:102A20006A460421002000F0F3F8FFF7C7F83C20C5
:102A30000A49087000F014F80DB000BD2D2D2D2DA1
:102A40002D2D2D2D2D2D2D2D2D2D2D002D2D2D4EC2
:102A5000657420427265616B2D2D2D0035000020BC
:102A600010B5002000F025F810BD10B504461CB9C3
:102A70000021A62000F07EF9012C03D10021A7201F
:102A800000F078F910BD10B504463CB90021C8200B
:102A900000F070F90021A12000F06CF9012C07D1A1
:102AA0000021C02000F066F90021A02000F062F9AA
:102AB00010BD70B50646002419E004F1B001C8B29B
:102AC000002100F057F90021084600F053F90021D9
:102AD000102000F04FF9002505E00121304600F0FC
:102AE00049F9681CC5B2822DF7DB601CC4B2082C02
:102AF000E3DB70BD08B50121082000F09FF94FF419
:102B00007040ADF8000010208DF8030003208DF810
:102B1000020069463D48FFF7DCFA4FF470413B483C
:102B2000FFF7B5FB0021AE2000F024F90021084694
:102B300000F020F90021102000F01CF900214020B5
:102B400000F018F90021812000F014F90021CF20B5
:102B500000F010F90021A12000F00CF90021C8209C
:102B600000F008F90021A62000F004F90021A820B7
:102B700000F000F900213F2000F0FCF80021D320F4
:102B800000F0F8F80021084600F0F4F80021D52004
:102B900000F0F0F80021802000F0ECF80021D920AE
:102BA00000F0E8F80021F12000F0E4F80021DA203C
:102BB00000F0E0F80021122000F0DCF80021DB201A
:102BC00000F0D8F80021402000F0D4F800212020A7
:102BD00000F0D0F80021022000F0CCF800218D2078
:102BE00000F0C8F80021142000F0C4F80021A4204F
:102BF00000F0C0F80021A62000F0BCF80021AF20B2
:102C000000F0B8F8FFF72CFF08BD0000000C0140F1
:102C10002DE9F047074688461646002584E03078BF
:102C2000A02845DD00253CE0702F04DD002708F1D9
:102C3000020000F0FF0830783E4911F81510884274
:102C40002ED17078012101EB45013A4A515C88424E
:102C500026D14146384600F077F8002407E004EB1F
:102C60004511354A505C012100F084F8641C102C99
:102C7000F5D308F10100C1B2384600F065F8002430
:102C800008E004EB451110312B4A505C012100F0A3
:102C900071F8641C102CF4D307F11000C7B204E0E3
:102CA0006D1C264800688542BED300BFB61C3BE0C1
:102CB0007A2F04DD002708F1020000F0FF083178C8
:102CC0001F48FDF799FA8146B9F1000F2BD0414614
:102CD000384600F039F800240AE099F8001020394D
:102CE00004EB0111174A505C012100F043F8641C09
:102CF000082CF2D308F10100C1B2384600F024F8E4
:102D000000240BE099F80010203904EB0111083180
:102D10000C4A505C012100F02DF8641C082CF1D302
:102D200007F10800C7B2761C307800287FF477AF2F
:102D3000BDE8F08784090020440600201C0A00201A
:102D4000B90900205400002070B504460D4605F175
:102D5000B001C8B2002100F00DF8102141EA1410B2
:102D6000002100F007F804F00F00002100F002F845
:102D700070BD000070B504460E462EB14FF4804180
:102D80001C48FFF784FA04E04FF480411948FFF72C
:102D90007CFA4FF400411748FFF777FA00251BE053
:102DA0004FF480511348FFF770FA04F0800028B107
:102DB0004FF400510F48FFF76AFA04E04FF4005156
:102DC0000C48FFF762FA4FF480510A48FFF75FFAA8
:102DD0006006040E681CC5B2082DE1DB4FF400410B
:102DE0000448FFF754FA4FF480410248FFF74FFAC6
:102DF00070BD0000000C01407047000029B1064A78
:102E0000D2690243044BDA6104E0034AD269824387
:102E1000014BDA61704700000010024029B1064AF8
:102E200012690243044B1A6104E0034A12698243A7
:102E3000014B1A61704700000010024029B1064A98
:102E400092690243044B9A6104E0034A9269824307
:102E5000014B9A61704700000010024029B1064AF8
:102E6000D2680243044BDA6004E0034AD26882432A
:102E7000014BDA60704700000010024030B50021BD
:102E80000022002400232D4D6D6805F00C0121B1B6
:102E9000042905D0082923D105E0294D056022E049
:102EA000274D05601FE0254D6D6805F47012234D18
:102EB0006D6805F48034022505EB92421CB9214D62
:102EC000554305600BE01D4D6D6805F400351DB1DF
:102ED0001C4D5543056002E0194D5543056002E065
:102EE000174D056000BF00BF144D6D6805F0F0017F
:102EF0000909154D6B5C0568DD4045600F4D6D6837
:102F000005F4E061090A104D6B5C4568DD408560A1
:102F10000A4D6D6805F46051C90A0B4D6B5C45683C
:102F2000DD40C560054D6D6805F44041890B074DD6
:102F30006B5CC568B5FBF3F5056130BD0010024060
:102F400000127A0000093D008A0A00209A0A002037
:102F500000B5012225492648006800F025FA012223
:102F60002249491C2348006800F01EFA01221F492B
:102F7000891C2148006800F017FA01221B49C91F6B
:102F80001E48006800F010FA01221849891F1C48E9
:102F9000006800F009FA012214490B391948006849
:102FA00000F002FA012211490A391748006800F0BE
:102FB000FBF901220D49491F1448006800F0F4F99B
:102FC00001220A49091F1248006800F0EDF90122A8
:102FD000064909390F48006800F0E6F90122034963
:102FE00008390D48006800F0DFF900BD475E002099
:102FF000200A0020240A0020280A00202C0A002091
:10300000300A0020340A0020380A00203C0A002040
:10301000400A0020440A0020480A002010B5044657
:103020001148008800F4004080B1104880781049B1
:1030300008730E48C0780A2190FBF1F00C494873E0
:103040000846007B0873002007490880FA210948D8
:1030500001F02EFBCA21074801F02AFBC4210548D4
:1030600001F026FB012010BD840A0020544C0020F2
:103070001C5E00200038014070B505460C46FFF785
:1030800067FF00202070012070BD704710B50A480E
:103090000088092805DD09480078012801D1084980
:1030A00008700748007828B1064802F0B7FC0120F4
:1030B00000F0ECFF10BD0000DA0A0020E00A00205A
:1030C0004E0A0020544A002010B500F001F810BD4F
:1030D0000CB50020019000903348006840F4803027
:1030E0003149086000BF3048006800F400300090AB
:1030F0000198401C0190009818B90198B0F5A06F94
:10310000F1D12948006800F4003010B1012000908E
:1031100001E0002000900098012843D12348006876
:1031200040F01000214908600846006820F00300C4
:1031300008600846006840F0020008601A484068CD
:10314000194948600846406848600846406840F4AD
:10315000806048600846406820F47C10486008465B
:10316000406840F4E81048600846006840F080700D
:10317000086000BF0C48006800F000700028F9D01B
:103180000948406820F00300074948600846406845
:1031900040F00200486000BF0348406800F00C00A7
:1031A0000828F9D10CBD00000010024000200240A8
:1031B00010B501234FF47A720D490E4803F0B2FCAA
:1031C00001234FF4FA720C490C4803F0ABFC0123C5
:1031D00040F6AC520A490B4803F0A4FC054803F042
:1031E000D1FC064803F0CEFC064803F0CBFC10BD32
:1031F000216A0008C4220020C96A0008D4220020E5
:10320000E56A0008E42200202DE9F05F81460F46C0
:1032100090464C464FF0000AD3462046FCF7F6FF96
:10322000054600262046FCF7F1FF054629E02078F8
:10323000392808DD2078462802DD2078662802DC5F
:103240002078373801E02078303800F0FF0A601C21
:1032500004460078392808DD2078462802DD2078E9
:10326000662802DC2078373801E02078303800F01A
:10327000FF0B0AF00F01584661F31F10B855641C8C
:10328000761C05EBD571B6EB610FD0DB284605EB5C
:10329000D0714910A5EB410171B12078392808DDC2
:1032A0002078462802DD2078662802DC207837382E
:1032B00001E020783038B855B8F1000F0CD028461E
:1032C00005EBD072294605EBD1735B10A5EB4303E8
:1032D00003EB6202C8F8002029462A4605EBD270AB
:1032E0004010A5EB400005EBD17300EB6300BDE897
:1032F000F09F042808D14FF0E021096941F0040152
:103300004FF0E022116107E04FF0E021096921F060
:1033100004014FF0E02211617047704710B5134867
:10332000006840F0010011490860084640681049F3
:1033300008400E494860084600680E4908400B499D
:1033400008600846006820F480200860084640684D
:1033500020F4FE0048604FF41F008860FFF7B4FEC1
:103360004FF000600449086010BD000000100240EA
:103370000000FFF8FFFFF6FE08ED00E010B50121A8
:103380000820FFF75BFD01210846FFF757FD0121EB
:103390000348FEF729FF01210248FEF725FF10BD73
:1033A000000430000002300030B503460D480488A8
:1033B000B3F1006F01D2012030BD4FF0006000EB8F
:1033C0008420984201D20220F6E703E018780870C2
:1033D000491C5B1C101EA2F10105AAB2F6D100BF68
:1033E000EAE70000E0F7FF1F2DE9F84F8046894625
:1033F00016465648B0F800A0A8F1006B4FEADB254E
:10340000CBF30A0000900098C0F50067B8F1006F98
:1034100002D20120BDE8F88F4FF0006000EB8A2057
:10342000404501D20120F5E749484A4948604A48E9
:103430004860BE4200DC37467DE0484803F090FC1F
:1034400008B10220E6E74FF0006101EBC5200A1445
:103450004349FFF7A9FF414803F082FC08B102206D
:10346000D8E73C48006940F002003A4908614FF053
:10347000006000EBC52048610846006940F040004C
:103480000861364803F06CFC08B10220C2E73148FD
:10349000006941F6FD7108402E490861002007E0EF
:1034A00019F80020009901442D4B5A54411C88B250
:1034B000B842F5DB00242AE0284803F051FC08B1AB
:1034C0000220A7E72348006940F001002149086174
:1034D000234810F81400012101EB4401204A515CFB
:1034E00040EA01204FF0006101EBC52121F81400F2
:1034F0001A4803F035FC08B102208BE71548006933
:1035000041F6FE71084013490861601C84B2B4F5AD
:10351000806FD1DBB74200D10EE0B9446D1C0020B2
:103520000090F01B86B2B6F5006F02DD4FF400602C
:1035300000E03046074680E700BF0648006940F0DB
:10354000800004490861002064E70000E0F7FF1FE5
:103550002301674500200240AB89EFCD88888800B1
:10356000F422002010B588B0044601210220FFF7A4
:1035700045FC01210D20FFF761FCC020ADF81C00C7
:1035800018208DF81F0003208DF81E0007A94F4852
:10359000FEF79FFD0320ADF81C0018208DF81F00DA
:1035A00003208DF81E0007A94948FEF792FD4948FF
:1035B00000F026F9C720ADF8140041F61F40ADF821
:1035C00010000020ADF81600ADF812008DF81800BC
:1035D00004A9404800F086FB7020ADF800000120EF
:1035E000ADF802000002ADF80C000020ADF80800B4
:1035F0006020ADF800000020ADF80E000820ADF806
:103600000A000420ADF804006946324800F006FACA
:103610000821304800F04EFA6020ADF8000000208C
:10362000ADF80E000820ADF80A000420ADF8040043
:103630006946284800F048FA0821264800F096FA22
:103640006020ADF800000020ADF80E000820ADF8B5
:103650000A000420ADF8040069461E4800F094FA00
:1036600008211C4800F0E0FA6020ADF800000020BE
:10367000ADF80E000820ADF80A000420ADF80400F3
:103680006946144800F0DAFA0821124800F014FBE9
:103690000121104800F0A4F801210E4800F082F842
:1036A00001210C4800F090F819210A4800F011FBA4
:1036B0001921084800F00FFB1921064800F00DFB06
:1036C0001921044800F00BFB08B010BD00080140B0
:1036D000000C01400004004010B501212A4800F010
:1036E00083F900284ED029480068401C274908600B
:1036F00003F070FA254800680F21B0FBF1F201FBDE
:10370000120030B922480078012802D10020204957
:1037100008701E4800680A21B0FBF1F201FB12009C
:10372000B8B91C480068401C1A4908601A4800785B
:1037300078B91A480088002804DD18480088401C21
:1037400016490880154800880A2802DD0120124920
:1037500008700E4800684FF47A71B0FBF1F201FB7B
:10376000120058B90020094908600D480078002867
:1037700004DD0B480078401E094908700121024809
:1037800000F01FF810BD000000080040D40A00201F
:10379000D80A0020DC0A0020E00A0020DA0A002013
:1037A0003500002021B1028842F08002028004E04E
:1037B00002884FF67F731A4002807047CA43028224
:1037C0007047CA430282704721B1028842F0010269
:1037D000028004E002884FF6FE731A4002807047B0
:1037E00031B1B0F8442042F40042A0F8442005E092
:1037F000B0F84420C2F30E02A0F844207047000045
:1038000010B504466848844208D10121C014FFF76E
:1038100025FB0021E014FFF721FBC4E0B4F1804F49
:1038200008D101210846FFF7F9FA00210120FFF72E
:10383000F5FAB8E05D48844208D101210220FFF783
:10384000EDFA00210220FFF7E9FAACE05848844283
:1038500008D101210420FFF7E1FA00210420FFF73D
:10386000DDFAA0E05348844208D101210820FFF787
:10387000D5FA00210820FFF7D1FA94E04E4884429F
:1038800008D101211020FFF7C9FA00211020FFF70D
:10389000C5FA88E04948844208D101212020FFF779
:1038A000BDFA00212020FFF7B9FA7CE044488442A9
:1038B00008D101214014FFF7D1FA00216014FFF76D
:1038C000CDFA70E03F48844209D10121C804FFF7D6
:1038D000C5FA00214FF40020FFF7C0FA63E03A4830
:1038E000844209D101210805FFF7B8FA00214FF4FD
:1038F0008010FFF7B3FA56E03448844209D1012121
:103900004805FFF7ABFA00214FF40010FFF7A6FAC5
:1039100049E02F48844208D101214020FFF77EFA78
:1039200000214020FFF77AFA3DE02A48844208D17E
:1039300001218020FFF772FA00218020FFF76EFA44
:1039400031E02548844208D101218015FFF766FA4D
:103950000021A015FFF762FA25E02048844209D132
:1039600001210804FFF77AFA00214FF48030FFF7B5
:1039700075FA18E01A48844209D101214804FFF77A
:103980006DFA00214FF40030FFF768FA0BE015489C
:10399000844208D101218804FFF760FA00214FF426
:1039A0008020FFF75BFA10BD002C014000040040AE
:1039B00000080040000C00400010004000140040CF
:1039C00000340140004C01400050014000540140CF
:1039D00000180040001C0040002000400040014052
:1039E000004401400048014030B502460020002359
:1039F0000024158A05EA0103958905EA010413B13B
:103A00000CB1012000E0002030BD1AB183890B43C6
:103A1000838102E083898B438381704770B50024E2
:103A200000220023058C4FF6FE7635400584028C7B
:103A30008388048B4FF68F752C40B51E2C400D8863
:103A40002C43751E2A400D892A434D882A43144D64
:103A5000A8420BD0134DA84208D0134DA84205D060
:103A6000124DA84202D0124DA84213D14FF6F7755D
:103A70002A404D892A434FF6FB752A408D882A43F8
:103A80004FF6FF652B404FF6FF552B408D892B439A
:103A9000CD892B4383800483CD888586028470BDC5
:103AA000002C01400034014000400140004401402E
:103AB000004801400A460021018B4FF6F773194078
:103AC000114301837047000070B5002400220023D9
:103AD000058C4FF6EF7635400584028C8388048B85
:103AE00048F6FF752C404FF6FF452C400D884FF6E9
:103AF000FF7606EA05252C434FF6DF752A400D892F
:103B000006EA05152A434D8806EA05152A43154D90
:103B1000A84202D0144DA8421DD14FF67F752A400D
:103B20004D894FF6FF7606EA05152A434FF6BF7515
:103B30002A408D8806EA05152A434FF6FF352B40AB
:103B40004FF2FF752B408D8906EA85052B43CD8901
:103B500006EA85052B4383800483CD88058702848C
:103B600070BD0000002C0140003401400A460021D5
:103B7000018B4FF2FF7319404FF6FF7303EA0223E4
:103B8000194301837047000070B500240022002310
:103B9000058C4FF6FF6635400584028C8388848B44
:103BA0004FF68F752C404FF6FC752C400D882C433A
:103BB0004FF6FF552A400D894FF6FF7606EA052598
:103BC0002A434D8806EA05252A43154DA84202D00E
:103BD000144DA8421DD14FF2FF752A404D894FF672
:103BE000FF7606EA05252A434FF6FF352A408D88E1
:103BF00006EA05252A434EF6FF752B404DF6FF7564
:103C00002B408D8906EA05152B43CD8906EA05155B
:103C10002B4383808483CD888587028470BD000018
:103C2000002C0140003401400A460021818B4FF6F0
:103C3000F7731940114381837047000070B500226B
:103C400000230024058C4EF6FF7635400584038C56
:103C50008488828B48F6FF752A404FF6FF452A403C
:103C60000D884FF6FF7606EA05252A434DF6FF75C7
:103C70002B400D8906EA05352B434D8806EA0535AC
:103C80002B430B4DA84202D00A4DA84208D14BF657
:103C9000FF752C408D894FF6FF7606EA85152C437B
:103CA00084808283CD88A0F84050038470BD0000DA
:103CB000002C0140003401400A460021818B4FF264
:103CC000FF7319404FF6FF7303EA02231943818300
:103CD0007047818670470187704781877047A0F8D9
:103CE00040107047002202881D4B98420ED01D4B99
:103CF00098420BD0B0F1804F08D01B4B984205D0B2
:103D00001A4B984202D01A4B984204D14FF68F7347
:103D10001A404B881A43174B984207D0164B9842CB
:103D200004D04FF6FF431A40CB881A4302808B8899
:103D300083850B8803850A4B98420BD0094B984228
:103D400008D00E4B984205D00D4B984202D00D4B37
:103D5000984201D10B7A03860123838270470000C9
:103D6000002C0140003401400004004000080040E5
:103D7000000C0040001000400014004000400140D2
:103D800000440140004801400146022901D1024897
:103D900000BF00BF704700000008004010B540F2AF
:103DA0002551174800F0ACF848B3154800F064F905
:103DB000C4B21448008800F4004000BBFE2C05D1BA
:103DC0000120114908800020104908800E48008811
:103DD000A8B10F480D49098844540C480088401C7C
:103DE0000A49088008460088082808DD002006499E
:103DF00008800448008840F400400249088010BD53
:103E000000380140840A0020860A0020880A002029
:103E1000544C002010B540F22551104800F070F8C5
:103E2000D0B10E4800F028F9C4B20D480088FF2830
:103E300007DA0B4801880088401C094A10800948AD
:103E400044540120084908800020084908702021B6
:103E5000024800F033F8002410BD00000044004088
:103E60004C0A0020544A0020DA0A0020E00A002010
:103E700010B540F225510E4800F042F8B0B10D489F
:103E80000088FF2802D900200A4908800848001D40
:103E90000088C1B2074802880088401C054B188082
:103EA000054881542021024800F008F810BD0000A8
:103EB00000480040B40A00201C55002001F40072A4
:103EC000B2F5007F00D100BFCA430280704721B124
:103ED000828942F40052828104E082894DF6FF73A8
:103EE0001A408281704702460020B1F5007F00D160
:103EF00000BF13880B400BB1012000E00020704789
:103F000070B50246002400230025002040F66A1602
:103F1000B14200D100BFC1F3421501F01F030126D9
:103F200006FA03F3012D02D19689334006E0022DF3
:103F300002D1168A334001E0968A33400C120126E2
:103F400006FA04F41688344013B10CB1012000E0E5
:103F5000002070BDF0B50346002400260025002097
:103F600040F66A17B94200D100BF1846C1F34214A7
:103F700001F01F06012707FA06F5012C01D10C30CC
:103F800004E0022C01D1103000E014301AB10768AF
:103F90002F43076002E00768AF430760F0BD0000F1
:103FA0002DE9F04786B005460E460024A24600BF24
:103FB000A1460027B08900B100BF2F462C8A4CF6DD
:103FC000FF700440F08804432C82AC894EF6F31055
:103FD0000440B08831890843718908430443AC81A7
:103FE000AC8A4FF6FF400440B0890443AC8201A87C
:103FF000FEF744FF1F48874202D1DDF810A001E020
:10400000DDF80CA0A88900F4004040B10AEBCA001A
:1040100000EB0A1031684900B0FBF1F807E00AEB49
:10402000CA0000EB0A1031688900B0FBF1F8642087
:10403000B8FBF0F004012009642101FB1089A88974
:1040400000F4004040B1322000EBC900B0FBF1F0B9
:1040500000F00700044308E0322000EB091064215F
:10406000B0FBF1F000F00F0004432C8106B0BDE876
:10407000F08700000038014001468888C0F308003E
:104080007047C1F3080282807047000010B50446F3
:1040900024B1012C09D0022C15D113E00B4A0C4895
:1040A00001880CA000F086FB0EE04FF480710748F9
:1040B000FCF779F80020064908800C4908700C4983
:1040C000088001E000E000BF00BF10BD544A00209E
:1040D0004C0A0020756172743220726563763A2052
:1040E00025642C2025730D0A000000004E0A0020D4
:1040F000DA0A00201CB53B48C07806284ADA39485D
:10410000C07868B937480379027A37A101A800F06E
:1041100061FB01A8374908600120FDF7CFF934E0C1
:104120003048C07801280DD12E484379427A2EA11B
:10413000684600F04FFB3049C1F800D00120FDF780
:10414000BDF922E02748C07802280DD1254883799F
:10415000827A25A101A800F03DFB01A8254908604D
:104160000220FDF7ABF910E01E48C07803280CD1FF
:104170001C48C379C27A1CA1684600F02BFB1E497B
:10418000C1F800D00220FDF799F91648C078401C0C
:104190001449C8701948FDF7F3F91248007B18B1AB
:1041A0000F201749088002E01920154908800D48A2
:1041B000407B20B10F201249091D088003E019201F
:1041C0000F49091D08800748807B20B10F200C494A
:1041D0000C31088003E0192009490C3108800120C6
:1041E0001CBD0000385E0020253032782530327842
:1041F00000000000640A0020680A0020C00A0020B5
:104200003404004000B58FB06648007901285AD1C7
:104210006548006800281DDD63480068962819DAA3
:1042200062480078B0B1604861A1026802A800F05D
:10423000D1FA02AA00210846FEF7EAFC604861A113
:10424000026802A800F0C6FA02AA02210020FEF7C6
:10425000DFFC13E0002256A102A800F0BBFA02AA7C
:1042600000210846FEF7D4FC002256A102A800F067
:10427000B1FA02AA02210020FEF7CAFC4948007BDD
:10428000642804DD53A102A800F0A4FA06E0454822
:10429000437B027B53A102A800F09CFA02AA0421EE
:1042A0000020FEF7B5FC54488079009052484379CD
:1042B000027952A102A800F08DFA02AA062100207C
:1042C000FEF7A6FC6BE037480079022833D151484D
:1042D0004378027850A102A800F07CFA02AA0021DB
:1042E0000846FEF795FC52484378027851A102A88F
:1042F00000F070FA02AA02210020FEF789FC534860
:104300004378027852A102A800F064FA02AA0421BC
:104310000020FEF77DFC38488079009036484379CC
:10432000027936A102A800F055FA02AA062100205F
:10433000FEF76EFC33E01B48007900282FD14A4875
:10434000C27B4AA102A800F045FA02AA0021084651
:10435000FEF75EFC4448027C48A102A800F03AFA4D
:1043600002AA02210020FEF753FC3F48427C47A1ED
:1043700002A800F02FFA02AA04210020FEF748FC50
:104380001D48807900901C48437902791BA102A83E
:1043900000F020FA02AA06210020FEF739FC0120D5
:1043A0000FB000BD1C5E00200C00002008000020A3
:1043B0004865617274203A20253033642020200043
:1043C00004000020426C6F6F64203A202530336473
:1043D0002020200054656D7020203A204572726FB5
:1043E0007220200054656D7020203A202530326400
:1043F0002E25303264200000C00A002054696D650B
:104400003A20253032643A253032643A253032641D
:10441000200000006C0A0020416C61726D313A206E
:10442000253032783A2530327820202000000000F4
:104430006E0A0020416C61726D323A20253032786C
:104440003A2530327820202000000000700A002039
:10445000416C61726D333A20253032783A25303222
:104460007820202000000000385E0020424F5831A4
:104470003A2025303364202020000000424F58327B
:104480003A2025303364202020000000424F58336A
:104490003A202530336420202000000000BFFEE7D2
:1044A00010B586B00446012144F20400FEF7C6FCB4
:1044B0004FF40070ADF8140003208DF8160018209A
:1044C0008DF8170005A91C48FDF703FE4FF4806026
:1044D000ADF8140004208DF8170005A91648FDF763
:1044E000F8FD25208DF8000003208DF801008DF8DF
:1044F000020001208DF803006846FEF735FA0194AA
:104500000020ADF80800ADF80A00ADF80C00ADF8D9
:1045100010000C20ADF80E0001A90848FFF740FD7F
:10452000012240F225510548FFF714FD01210348FF
:10453000FFF7CDFC06B010BD000801400038014077
:1045400070B586B006460C46154601210420FEF7DC
:1045500075FC01214804FEF751FC0420ADF814005D
:1045600018208DF8170003208DF8160005A91748AC
:10457000FDF7AFFD0820ADF8140004208DF81700FA
:1045800005A91248FDF7A5FD01960020ADF8080029
:10459000ADF80A00ADF80C00ADF810000C20ADF835
:1045A0000E0001A90A48FFF7FBFC29462046FEF74A
:1045B000C6F9012240F225510548FFF7CBFC012145
:1045C0000348FFF784FC06B070BD000000080140FE
:1045D0000044004010B586B0044601210820FEF7D3
:1045E0002DFC01218804FEF709FC18208DF8170026
:1045F0004FF48060ADF8140003208DF8160005A973
:104600001D48FDF766FD04208DF817004002ADF847
:10461000140003208DF8160005A91748FDF759FD71
:1046200001940020ADF810000C20ADF80E00002021
:10463000ADF80C00ADF80A00ADF8080001A90F486C
:10464000FFF7AEFC01210D48FFF741FC012240F2CB
:1046500025510A48FFF77EFC27208DF80000012035
:104660008DF803008DF801008DF802006846FEF712
:104670007BF906B010BD0000000C0140004800406E
:1046800070B504460D4600260DE014F8011B0748DE
:10469000FFF7F7FC00BF40210448FFF724FC002887
:1046A000F9D0701C86B2AE42EFDB70BD004800400E
:1046B00070B504460D4629462046FFF7E2FC00BFD0
:1046C00080212046FFF70FFC0028F9D070BD0000C4
:1046D00010B50446012C02D0022C39D11BE0012276
:1046E0001C491D480068FEF77FFE01221949491C3C
:1046F0001A480068FEF778FE01221649091F18487B
:104700000068FEF771FE01221249C91E15480068B3
:10471000FEF76AFE1CE001220E49891C124800685F
:10472000FEF762FE01220B49C91C10480068FEF723
:104730005BFE01220749891E0D480068FEF754FE02
:1047400001220449491E0B480068FEF74DFE00BFD8
:1047500000BF10BD405E00202C0A0020300A00205F
:10476000340A0020380A00203C0A0020400A0020B9
:10477000440A0020480A002010B5012209490A48CD
:104780000068FEF731FE01220649491C074800680F
:10479000FEF72AFE01220349891C05480068FEF73E
:1047A00023FE10BD475E0020200A0020240A0020BE
:1047B000280A00200FB4054B10B503A9044A02983B
:1047C00000F062F910BC5DF814FB00008955000888
:1047D000800A00200FB4084B10B504A902AA039860
:1047E00000F052F9044602A9002000F0E4FC204643
:1047F00010BC5DF814FB0000B751000837B5144633
:104800000846064B6A46214600F03EF904466946D2
:10481000002000F0D0FC20463EBD0000B75100084B
:1048200000487047EC0A002030B528B1144C031F33
:10483000002021680A4605E0084630BD9A4203D8A8
:1048400010465268002AF9D1002800D041680BD0E8
:104850000468A3EB0005A54204D11B681C44034671
:10486000046002E0436000E023603AB11C68D51A9E
:10487000A54203D115682C441C6052685A6030BDB3
:10488000E40A00202DE9F04782460F4C10480D4EF7
:104890000E4F001B4FF0000820F007054FF00109F4
:1048A00000221146504600F0BFFF002802D13068B8
:1048B00010B10020BDE8F0873C60C4E90058C6F89C
:1048C0000090EDE7E80A0020545E0020E40A002092
:1048D000506A002002E008C8121F08C1002AFAD15D
:1048E00070477047002001E001C1121F002AFBD170
:1048F000704700002DE9FF5F82B00021DDE9043040
:10490000020DDDF840B0034318D044F61050A2F277
:10491000FF3242431514119801281FD0A5EB0B005C
:10492000401C5FEA000A4FF000064E4FDFF8389156
:10493000B046504615D5CAF1000413E01198012481
:104940004AA3012801D16FEA0B010298119AC0E92C
:104950000031C0E9024206B0BDE8F09FCBF1000093
:10496000DFE704460021404A491842EB0450CDE9F4
:10497000001012E0E00707D032463B464046494669
:10498000FBF73CFF8046894632463B4610461946B7
:10499000FBF734FF06460F466410002CEAD1DDE930
:1049A0000401DDE90023BAF1000F06DAFBF726FF68
:1049B00042464B46FBF722FF05E0FCF7C1F94246B1
:1049C0004B46FCF7BDF904460E460022284BFBF788
:1049D000EDFF03D84FF0FF30014607E00022254BE2
:1049E00020463146FBF763FEFCF725FA102409E068
:1049F000002C0ADB0A220023FCF706F8039B303266
:104A00001A55641E50EA0102F2D1641C039AC4F1E3
:104A100011031444119A012A03D0012208430DD135
:104A20000AE0084304D000204FF0110B119072E708
:104A3000A3EB0B056D1E0DE05B4504DD4FF000029E
:104A400005F1010504E003DA4FF00002A5F10105CC
:104A5000002AECD002981199C0E90231C0E9004562
:104A600079E70000000014400000F03F3000000033
:104A70000000F0430000E03F30380A2801D2012056
:104A800070470020704700002DE9FF4F95B09B460E
:104A90008946064600250FE2252877D100242746BF
:104AA000F84A0121059400E0044316F8013F203B39
:104AB00001FA03F01042F7D130782A2811D06FF0B4
:104AC0002F033078A0F13002092A16D8059A44F055
:104AD000020402EB820203EB42021044761C0590B2
:104AE000EFE759F8042B0592002A03DA504244F408
:104AF0000054059044F00204761C30782E2816D11C
:104B000016F8010F44F004042A280DD06FF02F028C
:104B10003078A0F13003092B09D807EB870302EBAB
:104B20004303C718761CF3E759F8047B761C3078EA
:104B30006C280FD006DC4C2817D068280DD06A28C6
:104B400014D104E0742810D07A280FD10DE044F479
:104B500000140AE044F4801401E044F44014727834
:104B6000824202D104F58014761C761C30786628C7
:104B70000BD013DC582877D009DC002875D04528E5
:104B8000F6D04628F4D047281AD19DE118E06328D2
:104B900035D0642879D0652812D195E1702873D07A
:104BA00008DC6728F1D069286FD06E280DD06F28F7
:104BB00006D1B5E073282CD0752875D0782874D02C
:104BC0005A46179990476D1C75E1C4F302500228AC
:104BD00009D003280DD0D9F8001004280DD00D609D
:104BE00009F1040967E1D9F80010EA17C1E9005298
:104BF000F6E7D9F800100D80F2E70D70F0E719F82C
:104C0000041B8DF8001000208DF80100EA460120F9
:104C100003E059F804AB4FF0FF3061074FF000019B
:104C200002D40DE008F101018846B9420FDA80454F
:104C3000F8DB1AF808100029F4D108E008F10101A6
:104C400088468142FADB1AF808100029F6D1059847
:104C50005B46A0EB080721463846179A00F094FA05
:104C6000284400EB080507E04DE029E10DE01AF8C3
:104C7000010B5A4617999047B8F10108F7D25B46E5
:104C800021463846179A13E142E00A220092C4F303
:104C900002524FF0000A022A08D059F804CB032A26
:104CA0004FEAEC710AD00DE029E02AE009F1070192
:104CB00021F00702F2E802C1914609E00FFA8CFCEC
:104CC0004FEAEC71042A03D14FFA8CFC4FEAEC71E5
:104CD000002907DA0A460021DCF1000C61EB020131
:104CE0002D2202E0220504D52B228DF8042001227A
:104CF00003E0E20701D02022F7E7904659E00A21BD
:104D000002E010220DE010214FF0000A00910BE0AC
:104D100010224FF0000A44F004040827009203E038
:104D200008224FF0000A0092C4F30252022A05D072
:104D300059F804CB0021032A08D009E009F1070142
:104D400021F00702F2E802C1914605E01FFA8CFC4F
:104D5000042A01D10CF0FF0C4FF00008220728D5DF
:104D6000702806D0009B83F0100353EA0A0305D095
:104D70000EE040228DF80420012208E05CEA0102E6
:104D800006D030228DF804208DF8050002229046CE
:104D9000009B83F0080353EA0A030AD15CEA01028C
:104DA00001D1620705D530228DF804204FF00108AB
:104DB0007F1E582804D034A003900EA802900DE066
:104DC00036A0F9E753466046009AFBF71DFE84467D
:104DD0000398825C0298401E029002705CEA010017
:104DE000F0D1029806A9081A00F1200A600702D53E
:104DF00024F4803400E00127574502DDA7EB0A00C8
:104E000000E0002000EB0A01009005984144401AA0
:104E10000590E00306D45B462146179A059800F0FA
:104E2000B3F90544002706E001A85A46C05D17996A
:104E300090476D1C7F1C4745F6DBE0030CD55B46B5
:104E40002146179A059800F09FF9054404E03020A8
:104E50005A46179990476D1C0099481E00900029EA
:104E6000F5DC08E0029802995A460078491C029144
:104E7000179990476D1CBAF10001AAF1010AF1DC03
:104E800065E100000928010030313233343536370E
:104E90003839616263646566000000003031323386
:104EA0003435363738394142434445460000000026
:104EB00000F058F90544761C307800287FF4ECADFA
:104EC00019B02846BDE8F08F620700D4062709F123
:104ED000070222F0070CFCE80223E14603F0004839
:104EE0005FEA080C02D00FF2702C0DE05FEA045C60
:104EF00002D50FF2682C07E05FEAC47C02D00FF203
:104F0000602C01E0AFF2700C4FF0FF3823F000434B
:104F1000CDF850C065280CD006DC452809D04628BD
:104F20001DD047283DD13DE0662818D067287ED1A6
:104F300038E00021112F01DB112000E0781CCDE9C1
:104F4000000106A90EA8FFF7D5FCDDE90F010E9AB6
:104F500003910021009207F1010A04914DE04FF006
:104F600000400097CDE9011006A90EA8FFF7C2FC8A
:104F7000DDE90F0203920E9B11990022DDF80CA0CF
:104F80000093049211B9791C00EB010AB7EB0A00F7
:104F900004D4C0F1FF3007F1010A0490AAEB070026
:104FA000019044E0012F00DA01270021112F01DDDB
:104FB000112000E03846CDE9000106A90EA8FFF750
:104FC00099FCDDE90F010E9A0391002104910092F2
:104FD000BA4621070CD40399514500DA8A46BAF142
:104FE000010F05DD009AAAF10101515C302908D0BA
:104FF000B84202DA10F1040F06DA0121CDE90110FE
:1050000015E0AAF10101E9E7002805DC0499014453
:105010000491AAEB000102E0411C514500DD8A46E3
:105020000499401A401C01904FF000400290200764
:1050300004D40198504501DBCDF8048000208DF8A0
:105040004F0002980DF14F07B0F1004F25D02B20F3
:105050000E9002984FF0020800280CDA40420290AD
:105060002D200E9007E00A210298FBF7B7FC3031A3
:10507000029007F8011DB8F10001A8F10108F2DC67
:1050800002980028EFD1791E0E980870307800F051
:10509000200040F0450007F8020D12A8C01B00F1E7
:1050A00007081498007800B1012000EB0A0101986C
:1050B00001EBE07105984144401A401E0590E00361
:1050C00006D45B462146179A059800F05DF8054422
:1050D0001498007818B15A46179990476D1CE00350
:1050E00024D55B462146179A059800F04DF80544F3
:1050F0001CE00498002807DBDDE90301884203DD9A
:105100000098405C179901E0179930205A46904763
:10511000049805F10105401C04900198401E01907F
:1051200004D12E205A46179990476D1CBAF1000100
:10513000AAF1010ADDDC05E017F8010B5A461799C0
:1051400090476D1CB8F10001A8F10108F4DC5B4642
:105150002146179A0598ABE62D0000002B000000B1
:10516000200000002DE9F041044600251E461746A8
:10517000880404D405E039462020B0476D1C641E25
:10518000F9D52846BDE8F0812DE9F0410446002517
:105190001E469046C80301D5302700E0202788042A
:1051A00004D505E041463846B0476D1C641EF9D56C
:1051B0002846BDE8F0810A68531C0B6010707047E8
:1051C000014609B1086808B90020704719B1D1E952
:1051D0000120904201D30846F7E702E08868401CAE
:1051E000886041B1D1E90120904204D28A68086800
:1051F000805C2028F2DDD1E90120904202D188684C
:10520000401E88600846E0E770B50446002522E0AD
:105210002568A08900F4807020B9A06810B1A0684A
:10522000FFF7F2FFA08900F4807028B9206918B157
:105230000A4A206951688847A08900F4007028B99B
:10524000206A18B1054A206A5168884703484168B6
:10525000204688472C46002CDAD170BDA80A0020D1
:1052600070B504460D4600222946204600F09CF900
:1052700070BD70B5044628202168884705461DB1D9
:1052800028212846FAF78FFF284670BD10B504463E
:1052900000221146204600F06BF810BD2DE9F047C2
:1052A0008AB004460E46154698461C2103A8FAF714
:1052B0007AFF002700202C490860486004B106B935
:1052C00032E00394049600200590284A07CA07ABF1
:1052D00007C32648FFF7CDFF074607B924E003A818
:1052E00001F072FB8246FFF76BFF81464946384664
:1052F00001F096FA00B917E0B8F1000F0BD003A83F
:10530000FFF75EFFDDE90410884203D20599039898
:10531000405C00B108E01DB105990398084428607D
:1053200038460AB0BDE8F08717B13846FFF76CFF82
:10533000C4B1019400200290DDE90410884202D239
:105340000598029004E0049810B10498401E029061
:105350001DB1DDE90101084428600348DDE90112BF
:1053600006C000BF0020DCE7A00A0020A80A002039
:105370002DE9F04104460D46164614B90020BDE85B
:10538000F0812046FAF742FF471C33462A46394649
:105390002046FFF783FFF2E770B504460D4604B1DF
:1053A0000DB9012070BDAC4201D10020FAE705E043
:1053B000207808B90020F5E7641C6D1C2078FAF706
:1053C000D3FE06462878FAF7CFFE8642F0D0207842
:1053D000FAF7CAFE06462878FAF7C6FE301AE1E761
:1053E00010B56FF00400FDF784FF0A4800680A4911
:1053F000B0FBF1F0094908700846007800EB400165
:10540000C1EBC0104FF6FF7101EAC00004490880EB
:1054100010BD00003C00002000127A007A0A002033
:105420007C0A00200146114A12884A434FF0E023CB
:105430005A6100229A611A46126942F001021A6109
:1054400000BF4FF0E022106900F001021AB100F431
:105450008032002AF5D04FF0E022126922F00102DA
:105460004FF0E0231A6100229A6170477C0A002005
:105470000146114A12784A434FF0E0235A61002254
:105480009A611A46126942F001021A6100BF4FF098
:10549000E022106900F001021AB100F48032002A03
:1054A000F5D04FF0E022126922F001024FF0E02324
:1054B0001A6100229A6170477A0A002010B5C0B0C4
:1054C00004464FF480716846FAF76DFE12A000881A
:1054D00020804FF480716846FAF765FE0F48827CA1
:1054E0000FA16846FFF776F969462046FAF766FE8F
:1054F0004FF480716846FAF756FE0CA16846FFF734
:1055000069F969462046FAF759FE2046FAF77EFE09
:10551000C0B240B010BD00007B000000385E00202B
:105520002264727567223A22256422007D00000001
:1055300008B501210820FDF781FC1020ADF800001E
:1055400004208DF8030069460148FCF7C2FD08BD40
:10555000000C014008B501210820FDF76FFC102068
:10556000ADF8000003208DF8020010208DF8030034
:1055700069460448FCF7ADFD10210248FCF785FEA2
:1055800008BD0000000C014000BF054A128802F06F
:105590004002002AF9D0C2B2014B1B1D1A8070478D
:1055A000003801402E2070472DE9F04105460E4697
:1055B0001746002405B116B90020BDE8F081AC689B
:1055C0005FB100E024688CB1206A78B13046216A6E
:1055D000FAF723FE0028F5D108E000E024682CB19A
:1055E0003046216AFFF7D8FE0028F7D10CB1206AB7
:1055F00008B90020E1E72046DFE7000010B50020F1
:105600000A490860FCF74CFF00200949C1F8A001D5
:105610000220FFF72DFF0120044908600220FFF758
:1056200027FF00200249C1F8A40110BDA481214236
:105630000080214208B501210820FDF7FFFB4FF44F
:105640008070ADF8000003208DF8020010208DF866
:10565000030069460B48FCF73CFD4FF40070ADF8C1
:10566000000003208DF8020010208DF80300694629
:105670000448FCF72EFD0120034908600349C1F8E6
:10568000A00108BD000C0140A481214200802142FC
:1056900010B500200A490860FCF702FF0120094903
:1056A000C1F8A0010220FFF7E3FE012004490860D1
:1056B0000220FFF7DDFE00200249C1F8A40110BD61
:1056C000A48121420080214270B505460024FCF7E8
:1056D000D3FE002616E000200F4908600220FFF7E5
:1056E000C7FE01200D49C1F8A4016006040E0A4856
:1056F0008438006808B1601CC4B20120FFF7B8FE0E
:10570000701CC6B2082EE6DB15B9FFF7C1FF01E039
:10571000FFF774FF204670BDA48121420080214222
:1057200070B50446FCF7BCFE00200F490860002558
:1057300017E0E0090C49091F08606006040E02200A
:10574000FFF796FE01200949C1F8A4010220FFF7E6
:105750008FFE0020044908600220FFF789FE681CC4
:10576000C5B2082DE5DB70BDA48121420080214235
:1057700010B5FCF795FE0120094908600949C1F8F8
:10578000A4010420FFF774FE0020054908600420EE
:10579000FFF76EFE00200349C1F8A40110BD000010
:1057A000A08121420080214210B5FCF779FE002043
:1057B000084908600849C1F8A0010420FFF758FE15
:1057C0000120044908600449C1F8A0010420FFF742
:1057D0004FFE10BDA48121420080214210B500245B
:1057E000FCF74AFE01200E490860FFF741FE012048
:1057F0000C49C1F8A401FFF73BFE07E0601CC4B2EE
:10580000FA2C03DDFFF7D0FF012010BD04488038DB
:1058100000680028F2D10249091D086000BFF4E7C2
:10582000A0812142008021422DE9F0410B3020F07F
:105830000706104D19E02068B04215D3B0420AD9CE
:10584000871B201DD4F80480FAF794FCA019C0E946
:105850000078286004E060682860201DFAF78AFC60
:10586000201D2660BDE8F081251D2C68002CE2D1AA
:105870000020F7E7E40A00200024FDF799FCFCF77C
:105880000BFDFDF7B3F801210C48FDF79DFF13E078
:1058900001F058F90020FCF72BF8044614B120461B
:1058A00000F010F8FDF7F2FB0548007820B9FBF78F
:1058B000EBFC012002490870EAE700000008004004
:1058C000D80A002070B5064600243046FFF7DEFCFB
:1058D000044624B93AA0FEF76DFF002070BD3CA13C
:1058E0002046FFF7BDFC057D012D06D0022D11D00D
:1058F000032D27D0042D5BD13CE036A12046FFF7D5
:10590000AFFC006935490860FBF79AFF3C20344939
:1059100008704EE033A12046FFF7A2FC006933492E
:10592000086033A12046FFF79BFC006932490860FC
:105930000120FBF7C3FD07203049C8703C202849EF
:10594000087036E027A12046FFF78AFC0069274946
:10595000086027A12046FFF783FC006926490860FC
:105960000220FBF7ABFD08202449C8703C201C49ED
:1059700008701EE022A12046FFF772FC007D1F493F
:10598000C87321A12046FFF76BFC007D1B490874FA
:105990001FA12046FFF764FC007D18494874FEF7FC
:1059A000EBFE01201C4908703C200D49087000E006
:1059B00000BF00BF2046FFF727FC01208EE7000054
:1059C0007061727365206661696C2E0A00000000C8
:1059D000636D640074696D6500000000580A002062
:1059E0003500002074696D6531000000640A0020F4
:1059F00074696D6532000000680A0020385E00207E
:105A000064727567310000006472756732000000CF
:105A100064727567330000001C5E0020FEB5064608
:105A2000002400253A213046FAF7E6FB0446DCB1B3
:105A3000641C05E014F8012B28466D1C0DF80020AD
:105A40002078302802DB20783928F3DD00200DF89B
:105A500005006846FAF7AEFD054604A13046FAF7A0
:105A6000B9FB08B102494D700120FEBD636D6400B1
:105A70001C5E002070B50446FFF77AFEAE20FFF7EB
:105A80004FFEFFF7ABFE00B119E02046FFF748FEDE
:105A9000FFF7A4FE00B112E0FFF76AFEAF20FFF7A8
:105AA0003FFEFFF79BFE00B109E00020FFF70CFE70
:105AB0000546FFF7EDFDFFF777FE284670BDFFF7BF
:105AC00073FE0020FAE770B505460C46FFF750FE5E
:105AD000AE20FFF725FEFFF781FE00B111E028465A
